:02000000A42B2F
:10000600831203138518CE280518CE28851FCE28FF
:100016006E30F7000030F800F501F6018030760604
:10002600F00080307002031D1A283F307502031855
:100036006F288518672805186728851F6728F30124
:10004600F40180307406F00080307002031D2D2804
:100056001430730203186728861706138518492873
:1000660005184928851F4928F101F20180307206DA
:10007600F000803078067002031D4328770871026D
:1000860003184928F10A0319F20A392886130617B4
:100096008518632805186328851F6328F101F20176
:1000A60080307206F000803078067002031D5D28ED
:1000B6007708710203186328F10A0319F20A532814
:1000C600F30A0319F40A24280130F702031CF80383
:1000D600F50A0319F60A1128F501F60180307606AD
:1000E600F00080307002031D7A283F307502031835
:1000F600CE288518C7280518C728851FC728F301E5
:10010600F40180307406F00080307002031D8D28E3
:10011600143073020318C728861706138518A928F2
:100126000518A928851FA928F101F2018030720659
:10013600F000803078067002031DA328770871024C
:100146000318A928F10A0319F20A99288613061733
:100156008518C3280518C328851FC328F101F20195
:1001660080307206F000803078067002031DBD28CC
:10017600770871020318C328F10A0319F20AB32893
:10018600F30A0319F40A8428F70A0319F80AF50A88
:080196000319F60A71280800A4
:10019E008312031385188329051C8329851B832944
:1001AE003830F7000030F800F501F60180307606A1
:1001BE00F00080307002031DE6280A307502031825
:1001CE002F2985182729051C2729851B2729F30187
:1001DE00F40180307406F00080307002031DF9289F
:1001EE000B3073020318272986170613F101F2014B
:1001FE0080307206F000803078067002031D0929E7
:10020E007708710203180F29F10A0319F20AFF2861
:10021E0086130617F101F20180307206F00080306D
:10022E0078067002031D1D29770871020318232911
:10023E00F10A0319F20A1329F30A0319F40AF02832
:10024E000330F702031CF803F50A0319F60ADD283A
:10025E00F501F60180307606F00080307002031D45
:10026E003A290A3075020318832985187B29051C43
:10027E007B29851B7B29F301F40180307406F00085
:10028E0080307002031D4D290B30730203187B2939
:10029E0086170613F101F20180307206F0008030ED
:1002AE0078067002031D5D29770871020318632911
:1002BE00F10A0319F20A532986130617F101F20106
:1002CE0080307206F000803078067002031D7129AE
:1002DE007708710203187729F10A0319F20A6729C0
:1002EE00F30A0319F40A44290330F7070318F80A2E
:0A02FE00F50A0319F60A3129080079
:10030800831203138518202A051C202A851F202AFA
:100318008518D629051CD629851FD629F301F4018D
:1003280080307406F0008030033A7002031D9E2965
:10033800523073020318D629861706138518B9296F
:10034800051CB929851FB929F101F201803072060F
:10035800F00080307002031DB3291E3071020318AB
:10036800B929F10A0319F20AAA298613061785186A
:10037800D229051CD229851FD229F101F20180302A
:100388007206F00080307002031DCC291E30710205
:100398000318D229F10A0319F20AC329F30A031927
:1003A800F40A94298518202A051C202A851F202A4A
:1003B800F301F40180307406F0008030023A7002D4
:1003C800031DE829BC3073020318202A8617061378
:1003D8008518032A051C032A851F032AF101F20147
:1003E80080307206F00080307002031DFD29303025
:1003F80071020318032AF10A0319F20AF429861371
:10040800061785181C2A051C1C2A851F1C2AF101A1
:10041800F20180307206F00080307002031D162A47
:100428003030710203181C2AF10A0319F20A0D2A46
:0A043800F30A0319F40ADE29080094
:020442000800B0
:1004440083120313851C982A0518982A851F982A55
:10045400F301F40180307406F00080307002031D53
:10046400352A033073020318612A86170613F10133
:10047400F20180307206F00080307002031D442ABD
:100484006E30710203184A2AF10A0319F20A3B2A50
:1004940086130617F101F20180307206F0008030F5
:1004A4007002031D572A6E30710203185D2AF10A87
:1004B4000319F20A4E2AF30A0319F40A2C2AF30147
:1004C400F40180307406F00080307002031D6C2A41
:1004D400043073020318982A86170613F101F201F7
:1004E40080307206F00080307002031D7B2A5F307A
:1004F40071020318812AF10A0319F20A722A861377
:100504000617F101F20180307206F00080307002AB
:10051400031D8E2A5F3071020318942AF10A03190D
:0E052400F20A852AF30A0319F40A632A080072
:1005320083120313851C4D2B05184D2B851B4D2B48
:100542002D30F7000030F800F501F6018030760614
:10055200F00080307002031DB02A083075020318C3
:10056200F92A851CF52A0518F52A851BF52AF301B7
:10057200F40180307406F00080307002031DC32A3B
:10058200053073020318F12A86170613F101F201EE
:1005920080307206F000803078067002031DD32A84
:1005A200770871020318D92AF10A0319F20AC92A33
:1005B20086130617F101F20180307206F0008030D6
:1005C20078067002031DE72A770871020318ED2AE4
:1005D200F10A0319F20ADD2AF30A0319F40ABA2A04
:1005E2000330F702031CF803F50A0319F60AA72AD7
:1005F200F501F60180307606F00080307002031DAE
:10060200042B0730750203184D2B851C492B051846
:10061200492B851B492BF301F40180307406F0004D
:1006220080307002031D172B053073020318452B0F
:1006320086170613F101F20180307206F000803055
:1006420078067002031D272B7708710203182D2BE1
:10065200F10A0319F20A1D2B86130617F101F201A2
:1006620080307206F000803078067002031D3B2B4A
:10067200770871020318412BF10A0319F20A312B90
:10068200F30A0319F40A0E2B0330F7070318F80ACA
:0A069200F50A0319F60AFB2A080016
:10069C00193083120313F5000030F600851CA32BD0
:1006AC00051CA32B851FA32BF301F40180307406CA
:1006BC00F00080307002031D652B14307302031898
:1006CC009F2B86170613851C812B051C812B851FE0
:1006DC00812BF101F20180307206F0008030760639
:1006EC007002031D7B2B750871020318812BF10A14
:1006FC000319F20A712B86130617851C9B2B051CFC
:10070C009B2B851F9B2BF101F20180307206F000B0
:10071C00803076067002031D952B75087102031844
:10072C009B2BF10A0319F20A8B2BF30A0319F40A17
:0C073C005C2BF50A0319F60A542B080088
:100748000F30831203139F008330831685008601C0
:100758008312850186018518B62B0518B62B851FCF
:10076800B62B03208518BD2B051CBD2B851BBD2B67
:10077800CF208518C42B051CC42B851FC42B8421AE
:10078800851CCB2B0518CB2B851BCB2B9922851CC5
:10079800D22B0518D22B851FD22B2222851CD92BB0
:1007A800051CD92B851BD92B2122851CE02B051C68
:1007B800E02B851FE02B4E238518E82B0518E82B26
:0C07C800851BE82B8613E02BAF2BE92BE0
:02400E00582137
:00000001FF
